{
  "contractName": "Voter",
  "abi": [
    {
      "inputs": [
        {
          "internalType": "string[]",
          "name": "_options",
          "type": "string[]"
        }
      ],
      "stateMutability": "nonpayable",
      "type": "constructor"
    },
    {
      "inputs": [
        {
          "internalType": "uint256",
          "name": "",
          "type": "uint256"
        }
      ],
      "name": "options",
      "outputs": [
        {
          "internalType": "string",
          "name": "",
          "type": "string"
        }
      ],
      "stateMutability": "view",
      "type": "function"
    },
    {
      "inputs": [
        {
          "internalType": "uint256",
          "name": "",
          "type": "uint256"
        }
      ],
      "name": "votes",
      "outputs": [
        {
          "internalType": "uint256",
          "name": "",
          "type": "uint256"
        }
      ],
      "stateMutability": "view",
      "type": "function"
    },
    {
      "inputs": [
        {
          "internalType": "uint256",
          "name": "option",
          "type": "uint256"
        }
      ],
      "name": "vote",
      "outputs": [],
      "stateMutability": "nonpayable",
      "type": "function"
    },
    {
      "inputs": [],
      "name": "getOptions",
      "outputs": [
        {
          "internalType": "string[]",
          "name": "",
          "type": "string[]"
        }
      ],
      "stateMutability": "view",
      "type": "function"
    },
    {
      "inputs": [],
      "name": "getVotes",
      "outputs": [
        {
          "internalType": "uint256[]",
          "name": "",
          "type": "uint256[]"
        }
      ],
      "stateMutability": "view",
      "type": "function"
    }
  ],
  "bytecode": "0x60806040523480156200001157600080fd5b506040516200103a3803806200103a8339818101604052810190620000379190620003dd565b80600190805190602001906200004f92919062000057565b505062000760565b828054828255906000526020600020908101928215620000a4579160200282015b82811115620000a357825182908162000092919062000679565b509160200191906001019062000078565b5b509050620000b39190620000b7565b5090565b5b80821115620000db5760008181620000d19190620000df565b50600101620000b8565b5090565b508054620000ed9062000468565b6000825580601f1062000101575062000122565b601f01602090049060005260206000209081019062000121919062000125565b5b50565b5b808211156200014057600081600090555060010162000126565b5090565b6000604051905090565b600080fd5b600080fd5b600080fd5b6000601f19601f8301169050919050565b7f4e487b7100000000000000000000000000000000000000000000000000000000600052604160045260246000fd5b620001a8826200015d565b810181811067ffffffffffffffff82111715620001ca57620001c96200016e565b5b80604052505050565b6000620001df62000144565b9050620001ed82826200019d565b919050565b600067ffffffffffffffff82111562000210576200020f6200016e565b5b602082029050602081019050919050565b600080fd5b600080fd5b600067ffffffffffffffff8211156200024957620002486200016e565b5b62000254826200015d565b9050602081019050919050565b60005b838110156200028157808201518184015260208101905062000264565b8381111562000291576000848401525b50505050565b6000620002ae620002a8846200022b565b620001d3565b905082815260208101848484011115620002cd57620002cc62000226565b5b620002da84828562000261565b509392505050565b600082601f830112620002fa57620002f962000158565b5b81516200030c84826020860162000297565b91505092915050565b60006200032c6200032684620001f2565b620001d3565b9050808382526020820190506020840283018581111562000352576200035162000221565b5b835b81811015620003a057805167ffffffffffffffff8111156200037b576200037a62000158565b5b8086016200038a8982620002e2565b8552602085019450505060208101905062000354565b5050509392505050565b600082601f830112620003c257620003c162000158565b5b8151620003d484826020860162000315565b91505092915050565b600060208284031215620003f657620003f56200014e565b5b600082015167ffffffffffffffff81111562000417576200041662000153565b5b6200042584828501620003aa565b91505092915050565b600081519050919050565b7f4e487b7100000000000000000000000000000000000000000000000000000000600052602260045260246000fd5b600060028204905060018216806200048157607f821691505b60208210810362000497576200049662000439565b5b50919050565b60008190508160005260206000209050919050565b60006020601f8301049050919050565b600082821b905092915050565b600060088302620005017fffffffffffffffffffffffffffffffffffffffffffffffffffffffffffffffff82620004c2565b6200050d8683620004c2565b95508019841693508086168417925050509392505050565b6000819050919050565b6000819050919050565b60006200055a620005546200054e8462000525565b6200052f565b62000525565b9050919050565b6000819050919050565b620005768362000539565b6200058e620005858262000561565b848454620004cf565b825550505050565b600090565b620005a562000596565b620005b28184846200056b565b505050565b5b81811015620005da57620005ce6000826200059b565b600181019050620005b8565b5050565b601f8211156200062957620005f3816200049d565b620005fe84620004b2565b810160208510156200060e578190505b620006266200061d85620004b2565b830182620005b7565b50505b505050565b600082821c905092915050565b60006200064e600019846008026200062e565b1980831691505092915050565b60006200066983836200063b565b9150826002028217905092915050565b62000684826200042e565b67ffffffffffffffff811115620006a0576200069f6200016e565b5b620006ac825462000468565b620006b9828285620005de565b600060209050601f831160018114620006f15760008415620006dc578287015190505b620006e885826200065b565b86555062000758565b601f19841662000701866200049d565b60005b828110156200072b5784890151825560018201915060208501945060208101905062000704565b868310156200074b578489015162000747601f8916826200063b565b8355505b6001600288020188555050505b505050505050565b6108ca80620007706000396000f3fe608060405234801561001057600080fd5b50600436106100575760003560e01c80630121b93f1461005c5780630dc9601514610078578063409e2205146100965780635df81330146100c6578063cc2ee196146100f6575b600080fd5b610076600480360381019061007191906103f4565b610114565b005b6100806101b8565b60405161008d91906104df565b60405180910390f35b6100b060048036038101906100ab91906103f4565b610210565b6040516100bd919061059a565b60405180910390f35b6100e060048036038101906100db91906103f4565b6102bc565b6040516100ed91906105cb565b60405180910390f35b6100fe6102e0565b60405161010b91906106f2565b60405180910390f35b80600011158015610129575060018054905081105b610168576040517f08c379a000000000000000000000000000000000000000000000000000000000815260040161015f90610760565b60405180910390fd5b60016000828154811061017e5761017d610780565b5b906000526020600020015461019391906107de565b600082815481106101a7576101a6610780565b5b906000526020600020018190555050565b6060600080548060200260200160405190810160405280929190818152602001828054801561020657602002820191906000526020600020905b8154815260200190600101908083116101f2575b5050505050905090565b6001818154811061022057600080fd5b90600052602060002001600091509050805461023b90610863565b80601f016020809104026020016040519081016040528092919081815260200182805461026790610863565b80156102b45780601f10610289576101008083540402835291602001916102b4565b820191906000526020600020905b81548152906001019060200180831161029757829003601f168201915b505050505081565b600081815481106102cc57600080fd5b906000526020600020016000915090505481565b60606001805480602002602001604051908101604052809291908181526020016000905b828210156103b057838290600052602060002001805461032390610863565b80601f016020809104026020016040519081016040528092919081815260200182805461034f90610863565b801561039c5780601f106103715761010080835404028352916020019161039c565b820191906000526020600020905b81548152906001019060200180831161037f57829003601f168201915b505050505081526020019060010190610304565b50505050905090565b600080fd5b6000819050919050565b6103d1816103be565b81146103dc57600080fd5b50565b6000813590506103ee816103c8565b92915050565b60006020828403121561040a576104096103b9565b5b6000610418848285016103df565b91505092915050565b600081519050919050565b600082825260208201905092915050565b6000819050602082019050919050565b610456816103be565b82525050565b6000610468838361044d565b60208301905092915050565b6000602082019050919050565b600061048c82610421565b610496818561042c565b93506104a18361043d565b8060005b838110156104d25781516104b9888261045c565b97506104c483610474565b9250506001810190506104a5565b5085935050505092915050565b600060208201905081810360008301526104f98184610481565b905092915050565b600081519050919050565b600082825260208201905092915050565b60005b8381101561053b578082015181840152602081019050610520565b8381111561054a576000848401525b50505050565b6000601f19601f8301169050919050565b600061056c82610501565b610576818561050c565b935061058681856020860161051d565b61058f81610550565b840191505092915050565b600060208201905081810360008301526105b48184610561565b905092915050565b6105c5816103be565b82525050565b60006020820190506105e060008301846105bc565b92915050565b600081519050919050565b600082825260208201905092915050565b6000819050602082019050919050565b600082825260208201905092915050565b600061062e82610501565b6106388185610612565b935061064881856020860161051d565b61065181610550565b840191505092915050565b60006106688383610623565b905092915050565b6000602082019050919050565b6000610688826105e6565b61069281856105f1565b9350836020820285016106a485610602565b8060005b858110156106e057848403895281516106c1858261065c565b94506106cc83610670565b925060208a019950506001810190506106a8565b50829750879550505050505092915050565b6000602082019050818103600083015261070c818461067d565b905092915050565b7f496e76616c6964204f7074696f6e000000000000000000000000000000000000600082015250565b600061074a600e8361050c565b915061075582610714565b602082019050919050565b600060208201905081810360008301526107798161073d565b9050919050565b7f4e487b7100000000000000000000000000000000000000000000000000000000600052603260045260246000fd5b7f4e487b7100000000000000000000000000000000000000000000000000000000600052601160045260246000fd5b60006107e9826103be565b91506107f4836103be565b9250827fffffffffffffffffffffffffffffffffffffffffffffffffffffffffffffffff03821115610829576108286107af565b5b828201905092915050565b7f4e487b7100000000000000000000000000000000000000000000000000000000600052602260045260246000fd5b6000600282049050600182168061087b57607f821691505b60208210810361088e5761088d610834565b5b5091905056fea2646970667358221220948be8ea9b6366d4f65d0509025219033691328227138165b7cae35df878adde64736f6c634300080f0033",
  "immutableReferences": {},
  "source": "// SPDX-License-Identifier: MIT\r\npragma solidity ^0.8.15;\r\npragma experimental ABIEncoderV2;\r\n\r\n//[\"coffee\",\"tea\"]\r\ncontract Voter {\r\n    uint[] public votes;\r\n    string[] public  options;\r\n    constructor(string[] memory _options) public {\r\n        options = _options;\r\n       // votes.length = options.length;\r\n    }\r\n    function vote(uint option) public {\r\n        require(0 <= option && option < options.length, \"Invalid Option\");\r\n        votes[option] = votes[option] + 1;\r\n    }\r\n    function getOptions() public view returns (string[] memory){\r\n        return options;\r\n    }\r\n\r\n    function getVotes() public view returns (uint[] memory){\r\n        return votes;\r\n    }\r\n}",
  "sourcePath": "C:\\blockchain\\New folder\\Voting\\contracts\\Voter.sol",
  "compiler": {
    "name": "solc",
    "version": "0.8.15+commit.e14f2714.Emscripten.clang"
  },
  "schemaVersion": "3.4.8",
  "updatedAt": "2022-08-03T14:54:03.308Z",
  "devdoc": {
    "kind": "dev",
    "methods": {},
    "version": 1
  },
  "userdoc": {
    "kind": "user",
    "methods": {},
    "version": 1
  }
}